S02B0000433A2F55736572732F6A656869726574682F7372632F7469636B6574732F4D4C53572D313036363556
S31508000000D00700202D2D0008E7430308E74303081F
S31508000010FB5F0308E7430308E7430308E7430308CE
S31508000020E7430308E7430308E7430308E7430308EE
S31508000030E7430308E7430308E5410008E7430308E5
S31508000040E7430308E7430308E7430308E7430308CE
S31508000050E7430308E7430308E7430308E7430308BE
S31508000060E7430308E7430308E7430308E7430308AE
S31508000070E7430308E7430308E7430308E74303089E
S31508000080E7430308E7430308E7430308E74303088E
S31508000090396C01088D8F0308E7430308E743030813
S315080000A0E7430308E7430308E7430308E74303086E
S315080000B0ED4F0108E7430308E7430308E74303084E
S315080000C0E7430308E7430308E7430308E5BB0008DB
S315080000D0E7430308E7430308E7430308054C00081A
S315080000E0E54B00081D490308234903082949030865
S315080000F0E743030805230308CD2B0308CD3104087D
S31508000100C93104084D230308E3310408D131040832
S315080001109D2B0308D53104082D3903080D2C030837
S31508000120E7430308E7430308E7430308E7430308ED
S31508000130995B0308E7430308E7430308E743030813
S31508000140E7430308E7430308E7430308E7430308CD
S31508000150E7430308E7430308E7430308E7430308BD
S31508000160E7430308E7430308E7430308E7430308AD
S31508000170E7430308E7430308E7430308E74303089D
S31508000180E743030809F60008E74303087B740408F5
S31508000190A50E0308E7430308D10C0308050D030859
S315080001A0E7430308E7430308E7430308E74303086D
S309080001B0E743030808
S315080001C0F0B5114A114C124E00F00105E3695F07BC
S315080001D013D40DB9334213D103EA00078F4207D16E
S315080001E00B4A1A40002A0CBF00206FF00100F0BD30
S315080001F0013AEBD16FF00200F9E74FF0FF30F6E76E
S315080002006FF00100F3E700BF8096980000000350E6
S31508000210020001000B4B70B5D96911F480310DD17C
S3150800022001244FF48072084E084DF46020462C6471
S315080002301A61FFF7C5FF3464EC6070BD6FF001000A
S31508000240FBE700BF000003500010035000200350D6
S31508000250C0F30C0370B5054623B14FF40871114875
S3150800026000F0A2F84FF480320F4B104C9A66E669FC
S3150800027041F6713316400122E3630D4B0021DA6023
S315080002800223656121202361FFF79AFF10B9212017
S31508000290FFF796FF0122074BDA600EB10023E363EE
S315080002A070BD00BF25880408009000500000035068
S315080002B0001003500020035070B5134C6061E369C9
S315080002C05B071ED40E4656F8043B8D18A361AE4252
S315080002D00BD10423002121202361FFF771FF58B9B0
S315080002E0BDE870402120FFF76BBF08210846FFF7DD
S315080002F067FF10B10423236170BD56F8043BA36160
S31508000300E5E74FF0FF30F7E7000003502DE9F84323
S31508000310154682070F46064604D04FF41B711E4841
S3150800032000F042F8AB0704D040F26E211A4800F0FC
S315080003303BF84FF48032194BDFF868909A6603F55C
S315080003401C33DA6902F4803841F67132DA63012225
S3150800035003F58053DA6065B928460122104BDA6046
S31508000360B8F1000F03D00022A3F50053DA63BDE805
S31508000370F88306F5005404EA0904A41BAC4228BF16
S315080003802C46394622463046FFF796FF0028E4D128
S31508000390264427442D1BDEE72588040800900050D4
S315080003A00020035000E0FFFF5FF800F089450308CE
S315080003B0000000000000000000000000000000002F
S315080003C0013800D0FCE770472DE9F04F93B0CDE92E
S315080003D00A32DDE91C530E9353EC102BCDE90801C4
S315080003E0104619468DED060B1E9E17F07DF980B155
S315080003F0DDE906014FF0FF32C54B17F09DF940B90C
S31508000400DDE906014FF0FF326FF4801317F076F935
S3150800041070B1DDE908019DED060B0E9B1E96CDE930
S315080004201C53DDE90A3213B0BDE8F04F00F088B975
S315080004300022DDE90601002317F060F9002800F024
S315080004403381DDE906A303F1004BCBF30A5016F41A
S315080004508063A0F2FF3008BF06250F9316F072FEE0
S315080004609BA3D3E9002316F0D7FE9BA3D3E9002369
S3150800047016F01CFDCBF31304894644F07F518046E1
S315080004800022A44B504641F4401116F00DFD94A3EA
S31508000490D3E9002316F0C0FE02460B4640464946FD
S315080004A016F004FD17F052F9044616F04BFE8EA31B
S315080004B0D3E900238046894616F0AEFE0022964B05
S315080004C016F0F4FC17F042F989A3D3E9002307468E
S315080004D04946404616F0A0FE80463846894616F03C
S315080004E031FE85A3D3E9002316F096FE02460B4695
S315080004F04046494616F0D8FC02460B46CDE90C2381
S3150800050016F08AFEDDE90C23804689461046194610
S3150800051016F0CCFC0022CDE91001804B4046494636
S3150800052016F0A4FF00227E4B16F0C0FC02460B46CE
S315080005304046494616F09AFF00227A4B16F0B6FC5A
S3150800054002460B464046494616F090FFDDE90C2365
S315080005508046894600204FF0804116F0A5FC0246E9
S315080005600B464046494616F0A1FC02460B46DDE915
S31508000570100116F07BFF07F2FF3700226A4B16F0D0
S3150800058095FC00223B0516F047FE52465B46804620
S31508000590894617F0D1F8002840F08980CDE90C8902
S315080005A004F16303C72B34BF0427052731051BD580
S315080005B053A3D3E900235046594617F0B3F8002849
S315080005C07FD051A3D3E900235046594617F096F831
S315080005D0002876D00027A542C6BF2C1B04F1FF359C
S315080005E000253C4646F480660E9B9F422CBF4FF082
S315080005F00008A3EB070816F0020903D0002F18BF5E
S315080006004FF000083CB1DDE90C235046594616F078
S315080006102DFF82468B46DDE906010022002317F0EE
S315080006206DF810B10BF100439B46DDE9080126F48D
S315080006300063CDE90183DDE90A324BEC10AB009586
S3150800064000F07EF802465FB3DDE9091316F0200FC5
S3150800065000F10105089E0CBF65204520B047DDE97D
S3150800066008010523002205930A23002CCDE902324E
S3150800067007F1FF374FEAD473B8BF64422A4601939D
S3150800068004970A9B009435F00EFE0246B9F1000F56
S3150800069006D00B9BC41A0B9B1A190E9BA34245D86E
S315080006A0104613B0BDE8F08FDDE906ABCDE60022B3
S315080006B0404649461A4B16F0D9FE013CCDE90C01D5
S315080006C06EE7002D90D00F9B002B8DD0013D8BE758
S315080006D0FB799F501344D33FB3C8608B288AC63F23
S315080006E061436F63A787D23F71A379094F930A4085
S315080006F01655B5BBB16B0240EF39FAFE422EE63FFE
S315080007002D431CEBE2361A3F0000000080842E4180
S31508000710FFFFEF7F0000F83F0000E03F00002C409D
S3150800072000002440000018400000F03F2020DDE9CA
S315080007300913089DA8470134ADE700BF0000000073
S315080007402DE9F04F5BEC10AB97B0CDE90501DDE97B
S315080007502057CDE90723504652465B465946229E06
S3150800076016F0C2FF70B90323CDE902760193B04BA8
S315080007700093DDE90501DDE9072335F0B4FC17B080
S31508000780BDE8F08F4FF0FF326FF48013504659469C
S3150800079016F0B4FF28B10423CDE902760193A54BE0
S315080007A0E6E74FF0FF3250465946A34B16F0C4FF12
S315080007B068B1A24A06F00403002B08BF0322A04B27
S315080007C01CBF13460422CDE902760192D0E75046B3
S315080007D093A3D3E90023594616F0AEFF38B992A37E
S315080007E0D3E900235046594616F088FF68B1DDE97B
S315080007F00723DDE905014BEC10ABCDE92176209501
S3150800080017B0BDE8F04FFFF7DFBD002200235046C2
S31508000810594616F073FF002800F09A805B46524648
S315080008200020002116F040FB012382468B460993DF
S3150800083016F4806400F08E80092D40F28E80002424
S3150800084030210EABA5F109020134202C03F8011B57
S31508000850A5EB040901D09442F6D15946504616F044
S3150800086075FF784B054603EBC90393ED007B8DEDC9
S315080008700A7B16F067FC02460B465046594616F0A8
S3150800088013FBDDE90A2316F0C7FC02460B46CDE941
S315080008900C2316F083FF804616F044FC02460B46EE
S315080008A0DDE90C0116F000FB02460B46CDE90C23E8
S315080008B00022654B16F040FF002851D008F10108C8
S315080008C0404616F02FFC02460B46DDE90A0116F0F3
S315080008D01FFF10B14FF000080135B9F1000F50D1D4
S315080008E0284616F02FFC02460B465046594616F087
S315080008F0DBFA0022544B8046894616F0FFFE30B1DB
S31508000900002240464946504B16F016FF10B1E8073C
S3150800091000D501350A210EAB1A19202C0AD095FBF1
S31508000920F1F001FB1055303502F8015B013405463C
S315080009300028F2D106F00302012A57D1002F55D01C
S31508000940099A12B916F00C0F00D0013F302245E083
S3150800095009906DE74FF006097FE7A94600247CE772
S315080009600022DDE90C01384B16F0C8FE0028B4D188
S31508000970B8F1000F02D018F0010FAED008F1010847
S31508000980ABE70A210EAB2344202C0ED0B8FBF1F0BE
S3150800099001FB1082B8F1090F02F1300209F1FF39A3
S315080009A004F1010403F8012B11D83021A1440EAA41
S315080009B0202CAFD0A14504F101030AD11C4609F148
S315080009C058030DEB03092E2309F8203CA2E78046BD
S315080009D0DAE7A1541C46EBE71A550134A74205D9B4
S315080009E0202CF9D1CDE902760194C1E6202CF9D064
S315080009F0099A3AB12D2104F158026A4402F8201CDA
S31508000A000134EFE7710704D504F158022B216A4433
S31508000A10F4E73207E6D504F1580220216A44EDE7E7
S31508000A200000000065CDCD410000000065CDCDC1B8
S31508000A30799A04087D9A0408FFFFEF7F709A0408E4
S31508000A40759A0408889A04080000E03F0000000030
S31508000A5038B505462B680846C2E90031144616F033
S31508000A6071FB41EC100B00F03BF919A3D3E9002305
S31508000A7051EC100B16F0FAFC41EC100B00F0C4FB1D
S31508000A8051EC100B16F062FED5ED017AFEEECC7A2B
S31508000A9017EE903AD5ED027AFEEECC7AA38317EEDE
S31508000AA0903AD5ED037AFEEECA7AE38317EE903ACA
S31508000AB0D5ED047AFEEECA7A238417EE903A63845B
S31508000AC00023A060C4E90533C4E9033338BD00BF79
S31508000AD0EF39FAFE422EE63F08B510EE100A16F078
S31508000AE043FB00220C4B16F0C1FC41EC100B00F046
S31508000AF03BF907A3D3E9002351EC100B16F08CFB46
S31508000B0016F06CFE00EE100A08BD00BFAFF30080B9
S31508000B1000000000009C914000E0854000000000B5
S31508000B204FF47A732DE9F04F05682DED028B554386
S31508000B30B5FBF3F50C460D6041684FEA450A4A4392
S31508000B40B2FBF3F2504683B0A26017F085F9074668
S31508000B50606058B9424B43481B68D96817F0F2FBE6
S31508000B60002003B0BDEC028BBDE8F08F07EE905A6B
S31508000B70F8EEE77A17EE900A16F0F6FA02460B46F2
S31508000B8035A1D1E9000116F071FC16F027FE002602
S31508000B9083464FF000089FED348ADFF8D890B542B7
S31508000BA00CDC00235046236117F056F9E060002854
S31508000BB044D12B4B2D481B68D968CFE7304616F031
S31508000BC0C1FA42464B4616F071F9CDE9000158467E
S31508000BD016F0CAFA02460B46DDE9000116F01CFBC0
S31508000BE016F0FCFD00EE100A18F048F810EE100A90
S31508000BF016F0BAFA42464B4616F00EFB02460B466C
S31508000C004046494616F050F916F0E8FD07EE900AF8
S31508000C1067EE887A17EE900A16F0A6FA42464B4611
S31508000C2016F044F941EC100B00F06EFB51EC100B7A
S31508000C3016F08CFD27F816000136B0E7504617F077
S31508000C400BF9606120B9064B09481B68D96885E726
S31508000C50012086E7AFF30080182D4454FB21194084
S31508000C601C48032092B4040800008045BAB404085E
S31508000C70DBB404080000E03F38B50022164B51ECFF
S31508000C80100B16F0C9FA10A3D3E9002304460D4643
S31508000C9016F052FD70B90EA3D3E900232046294663
S31508000CA016F02CFD58B92046294617F097F800EE9D
S31508000CB0100A38BD47F6FF3300EE103AF9E74FF64B
S31508000CC0FF33F9E7AFF300800000000000FCEF40B7
S31508000CD00000000000FCEFC00000E040000000003B
S31508000CE038B555EC104B2DED028B00F091FB2246E2
S31508000CF02B4620462946B0EE408AF0EE608A32F04E
S31508000D0033FE98B9002200232046294616F014FD22
S31508000D1060B9002200232046294616F0E5FC60B19A
S31508000D2017F068FC22239FED0C8B0360B0EE480A8F
S31508000D30F0EE680ABDEC028B38BD17F05BFC212289
S31508000D4003460748BDEC028B1A60BDE8384000F040
S31508000D5053BA00BFAFF30080000000000000F0FFA8
S31508000D60207F050800000000BD4B2DE9F04F5BEC25
S31508000D7010AB9B4585B05C4613DC2BF00045B94BA0
S31508000D809D426CD90022B84B5046594616F0ACFC29
S31508000D90002800F0F680012005B0BDE8F04F18F0F5
S31508000DA009B8B24B9B4500F3E180B14B9B4540F334
S31508000DB0BA81251556469FED947BA5F2FF358DED34
S31508000DC0027BC4F31304AB4B9C4200F3A18144F0AD
S31508000DD07F57304647F4401739460022A64B16F08F
S31508000DE063F806460F460022A44BB24616F014FADC
S31508000DF032463B46BB4616F00FFA80468946CDE991
S31508000E000089002C42D1002200233046394616F0CC
S31508000E106BFC002800F0D880002D00F0A38128463E
S31508000E2016F090F906460F4679A3D3E9002316F083
S31508000E30F3F9DDE9022316F039F804460D46304683
S31508000E40394675A3D3E9002316F0E6F902460B46A0
S31508000E502046294616F02AF841EC100B8EE0A3F13D
S31508000E60E8739D4240F29480854B1C449C4240F2B4
S31508000E705A810022814B50465946002516F0CCF976
S31508000E8052465B4616F0C8F9CDE9000100224FF03C
S31508000E9080435046594616F009F802460B46504616
S31508000EA0594616F0E3FA02460B468046894616F07E
S31508000EB0B3F906460F465AA3D3E9002316F0ACF950
S31508000EC059A3D3E9002315F0F1FF32463B4616F045
S31508000ED0A3F957A3D3E9002315F0E8FF32463B46AA
S31508000EE016F09AF954A3D3E9002315F0DFFF32462A
S31508000EF03B4616F091F952A3D3E9002315F0D6FF25
S31508000F0032463B4616F088F94FA3D3E9002315F07D
S31508000F10CDFF32463B4616F07FF94DA3D3E90023B1
S31508000F2015F0C4FF32463B4616F076F906460F46DC
S31508000F30002D40F0AB80DDE9004522462B4615F032
S31508000F40B5FF42464B4616F067F902460B46204661
S31508000F50294615F0A9FF02460B465046594615F094
S31508000F60A3FF41EC100B05B0BDE8F08F52465B4677
S31508000F705046214615F09AFF41EC100B05B0BDE826
S31508000F80F08F4BEC10AB05B0BDE8F04F17F02EBF55
S31508000F9000223C4B5046594615F088FF0022002394
S31508000FA016F0CAFB28B1384B9D4202D84BEC10AB61
S31508000FB0E4E752465B465046594616F02DF900229C
S31508000FC02E4B16F029F9C6E723A3D3E900233046AA
S31508000FD0394616F021F902460B460020264915F037
S31508000FE063FF42464B4616F017F980468946002DA0
S31508000FF040F0BB8002460B463046394615F054FF92
S3150800100041EC100BBAE700BF00000000000000002A
S31508001010763C7935EF39EA3D0000E0FE422EE63FA0
S3150800102044523EDF12F1C23F9FC678D0099AC33FA9
S31508001030DE03CB966446C73FAF788E1DC571CC3F9D
S31508001040599322942449D23F04FA97999999D93FFA
S31508001050935555555555E53F555555555555E53F00
S315080010607982DA3FFFFFEF3F0000F0BFFFFFEF7F17
S31508001070FFFF3F439DA006000000F03F0000E03F51
S315080010803C412D4000005043FFFF8F3C284616F098
S3150800109059F804460D4652A3D3E9002316F0BCF8C6
S315080010A002460B463046394616461F46DDE90023FA
S315080010B015F0FCFE42464B4616F0AEF802460B46C5
S315080010C02046294614461D4647A3D3E9002316F0B1
S315080010D0A3F8DDE9022315F0E9FE02460B46204691
S315080010E0294615F0E3FE02460B46DDE9000115F038
S315080010F0DBFE52465B4615F0D7FE02460B463046E7
S31508001100394615F0D1FE41EC100B05B0BDE8F08F5D
S3150800111044F07F57C4F580140135304647F400176C
S31508001120A410394659E60022314B5046594615F067
S31508001130BDFE06460D150F460C46A5F2FF35002DD9
S315080011403DDD52465B4615F0AFFE02460B460020D3
S31508001150274915F0A9FE32463B4616F087F9CDE930
S3150800116002012EE69FED1C0B08E7284615F0EAFF5C
S3150800117082468B461AA3D3E9002316F04DF8044697
S315080011800D465046594618A3D3E9002316F044F8ED
S31508001190DDE9022315F08AFE02460B46404649461B
S315080011A015F082FE32463B4615F07EFE02460B4699
S315080011B02046294615F078FE41EC100BDEE60022A3
S315080011C00B4B15F071FE02460B465046594615F074
S315080011D06BFEC0E7AFF300800000000000000000CF
S315080011E00000E0FE422EE63F763C7935EF39EA3DCF
S315080011F00000F03F000000009FED010B704700BFA4
S31508001200000000000000F87F51EC100BC1F30A53F0
S315080012102DE9F041A3F2FF350C460646132D34DCC2
S31508001220002D20DB364B0F4643FA05F801EA080382
S3150800123003432FD030A3D3E9002315F037FE00224D
S31508001240002316F079FA40B1002C03DD4FF4801321
S315080012502B411F4427EA080400262346324643EC5E
S31508001260102BBDE8F08124A3D3E9002315F01EFE58
S315080012700022002316F060FA0028EED0002C36DB98
S315080012803443E9D000261F4CE7E7332D06DDB5F5D4
S31508001290806F25D041EC100BBDE8F081A3F2134313
S315080012A04FF0FF37DF403842F4D013A3D3E90023C9
S315080012B015F0FCFD0022002316F03EFA0028CCD0DB
S315080012C0002C334609DD142D06D0C5F1340501225C
S315080012D0AA4013449E4200D9013423EA0706BCE714
S315080012E002460B4615F0E2FD41EC100BD4E700264A
S315080012F04FF00044B1E700BF9C7500883CE4377E98
S31508001300FFFF0F000000F03F51EC100BC1F30A532A
S315080013102DE9F041A3F2FF350C460646132D32DCC3
S31508001320002D20DB384B0F4643FA05F801EA08037F
S3150800133003432DD032A3D3E9002315F0B7FD0022CD
S31508001340002316F0F9F940B1002C03DA4FF48013A4
S315080013502B411F4427EA080400262346324643EC5D
S31508001360102BBDE8F08126A3D3E9002315F09EFDD6
S315080013700022002316F0E0F90028EED0002C2ADB24
S3150800138000263446E9E7332D06DDB5F5806F1BD018
S3150800139041EC100BBDE8F081A3F213434FF0FF3781
S315080013A0DF400742F4D016A3D3E9002315F07EFDEB
S315080013B00022002316F0C0F90028CED0002C3346B0
S315080013C010DB23EA0706C8E702460B4615F06EFD52
S315080013D041EC100BDEE724F0004426430DD14FF014
S315080013E00044BAE7142D06D0C5F134050122AA40F7
S315080013F01344B342E5D20134E3E70026034CACE7D5
S315080014009C7500883CE4377EFFFF0F000000F0BFA4
S3150800141053EC102BB3F5801F2DE9F04F1C4687B00F
S3150800142058DA23F000411046114300F0F780002BEC
S315080014301946C0F234810022D94B15F0EDFE0C4650
S315080014400B46D84902466FF035008C4246DC251516
S31508001450D549C4F31304A5F2FF3521440544D348FE
S3150800146001F48011484005EB115540EA0403104683
S3150800147000221946CD4B15F017FDA31C82468B4654
S31508001480C3F31303022B32DC0022002316F02CF9D7
S31508001490002800F0CE80002D00F09281284615F035
S315080014A051FE06460F46AAA3D3E9002315F0B4FE5B
S315080014B004460D4630463946A7A3D3E9002315F05E
S315080014C0ABFE02460B462046294615F0EFFC41ECDA
S315080014D0100B09E0B34900208C42B8DD10461946C6
S315080014E015F0E4FC41EC100B07B0BDE8F08F0022C4
S315080014F04FF0804315F0DAFC02460B465046594633
S31508001500DFF8B88215F0B2FF06460F46284615F0F2
S3150800151019FE32463B46A044CDE904013046394619
S31508001520CDE9026715F078FE02460B46CDE90023A1
S3150800153015F072FE06460F4689A3D3E9002315F077
S315080015406BFE89A3D3E9002315F0B0FC32463B466F
S3150800155015F062FE86A3D3E9002315F0A7FC3246F0
S315080015603B4615F059FE84A3D3E9002315F09EFCEB
S31508001570DDE9002315F050FE81A3D3E90023CDE968
S3150800158000013046394615F047FE7FA3D3E900230C
S3150800159015F08CFC32463B4615F03EFE7CA3D3E99B
S315080015A0002315F083FC32463B4615F035FE0B4604
S315080015B00246DDE9000115F079FC7D4B06460F462B
S315080015C01B1B43EA0803002B5BDD0022794B5046C0
S315080015D0594615F021FE52465B4615F01DFE80461B
S315080015E08946002D64D142464B463046394615F0A9
S315080015F05DFCDDE9022315F00FFE02460B46404668
S31508001600494615F051FC02460B465046594615F018
S315080016104BFC41EC100B07B0BDE8F08F002200230D
S315080016200020654915F022FF41EC100B07B0BDE814
S31508001630F08F59A3D3E900235046594615F0ECFD1F
S3150800164002460B4600205B4915F02EFC06460F465F
S3150800165052465B465046594615F0DEFD02460B4695
S315080016603046394615F0D8FD06460F46002D56D1A8
S3150800167002460B465046594615F016FC41EC100B2F
S3150800168032E7002D40F09F8002460B4650465946E9
S3150800169015F00AFCDDE9022315F0BEFDB3E715F0E7
S315080016A003FC0022002315F0E1FE41EC100B1BE7BA
S315080016B027A3D3E90023DDE9040115F0ADFD424671
S315080016C04B4604460D463046394615F0EFFBDDE934
S315080016D0022315F0A1FD06460F461FA3D3E90023F2
S315080016E0DDE9040115F098FD02460B4630463946F9
S315080016F015F0DCFB02460B464046494615F0D4FB7E
S3150800170052465B4615F0D0FB02460B462046294654
S3150800171015F0CAFB41EC100B07B0BDE8F08F284660
S3150800172015F010FD8046894609A3D3E9002315F074
S3150800173073FD04460D464046494607A3D3E90023F0
S3150800174015F06AFD02460B4630463946D6E700BF15
S315080017500000E0FE422EE63F763C7935EF39EA3D59
S3150800176044523EDF12F1C23FDE03CB966446C73FC2
S31508001770599322942449D23F935555555555E53FDB
S315080017809FC678D0099AC33FAF788E1DC571CC3FE6
S3150800179004FA97999999D93F555555555555D53FB1
S315080017A000005043FFFFEF7F645F09000000F03F31
S315080017B051B806000000E03F000050C386EBF9FF71
S315080017C09FED0D0B90E6DDE904890DA3D3E900230F
S315080017D04046494615F020FD32463B4604460D462E
S315080017E05046594615F060FBDDE9022315F014FD55
S315080017F006460F469FE700BF0000000000000000F5
S315080018000000E0FE422EE63F2DE9F74F0446DDE9EB
S315080018100C7B886816469A460D4615F0A5FC804648
S31508001820B068894615F0A0FC02460B464046494674
S3150800183015F0F2FC80468946BAF1000F1BD0DAF89B
S31508001840080015F091FC02460B464046494615F03D
S315080018502BFB8046B86821F0004915F085FC024646
S315080018600B464046494615F001FE12A3D3E900236C
S3150800187015F04EFF50B13B46324629462046CDF874
S3150800188030B003B0BDE8F04F18F072BD064B2046E5
S315080018900093656940F24313044A0549A8470120A5
S315080018A003B0BDE8F08F00BFBE8305080C830508AA
S315080018B0E2B504087B14AE47E17A943F00000000C5
S315080018C02DE9F84F4FF000432DED028B23FA00F077
S315080018D057EC106B59EC118B93468A4615F032FC7F
S315080018E0424604460D464B463046394615F094FCAA
S315080018F002460B462046294615F08EFC02460B4644
S3150800190043EC182B0AA3D3E9002315F015FF08B1F9
S315080019109FED078B59465046B0EE480AF0EE680A26
S31508001920BDEC028BBDE8F84F19F0DCBBAFF30080C5
S315080019300000C0FFFFFFDF412DE9F0432DED028BCC
S3150800194099460B7F89B0072B04460F461546129E0B
S315080019501AD140F20241836B984740B9AC4B0093C9
S31508001960272365692046AB4AAB49A84799E0B06288
S3150800197040F202412046A36B984720B9A74B009333
S3150800198065692B23EEE7F0622A7F3B7F072A08D199
S31508001990092B3DD0072B13D0A14B00936569312342
S315080019A0E0E79A4234D0CDE902329E4B01939E4B32
S315080019B00093342365692046964A9C49A84770E0F7
S315080019C0D5F80C80B8F1000F09D00023CDE90283C1
S315080019D0974B0193974B009365693923EBE741468B
S315080019E0DFED950A47F6FF709FED940AB36A944AAD
S315080019F019F028FEF36A4146DFED8F0A9FED910A3A
S31508001A00914A924819F01EFEEB68F361AB6833629F
S31508001A1097F81C80B8F1090F45D0B8F1070F40F0C8
S31508001A203781FB684BB10022CDE90232804B019326
S31508001A30874B009365695B23BDE7EA6842B1CDE948
S31508001A4002237B4B01937B4B009365695C23B2E7CA
S31508001A50DFED807A95ED027AB4EEE77AF1EE10FAC8
S31508001A60DFED7D6ACCBF77EE677A77EEC77AF4EE5C
S31508001A70E67AF1EE10FA7EDD4FF07C53002217EE7F
S31508001A80100ACDE9042315F06FFB744BCDE902016A
S31508001A900193734B00935D23656920465D4A71493E
S31508001AA0A847012086E0287F072832D1EB6813F57E
S31508001AB0004F09D0654ACDE902326B4B01935D4B65
S31508001AC000936569622376E7DFED687A95ED027A19
S31508001AD0B4EEE77AF1EE10FADFED656ACCBF77EE81
S31508001AE0677A77EEC77AF4EEE67AF1EE10FA66DDF3
S31508001AF00022604B17EE100ACDE9042315F034FBDB
S31508001B005D4BCDE902010193554B0093656963234B
S31508001B10C3E7092812D0666919F030FC0546404625
S31508001B2019F02CFC554BCDE9025001933D4B00931F
S31508001B3066232046374A5249B047B2E7EB6813F1A5
S31508001B40800F0AD06FF07F02CDE902324D4B019328
S31508001B50384B0093656967232DE795ED027ADFED2B
S31508001B604A7AB4EE677AF1EE10FA28D0474B00931A
S31508001B7065696823F6E6B86815F0F6FA0446D9F8F2
S31508001B8000000D4615F0F0FA02460B462046294697
S31508001B9015F042FB1CA3D3E9002315F067FC06F1F8
S31508001BA0080841EC100B404607A919F053FA079BA1
S31508001BB0F360002009B0BDEC028BBDE8F083B8687D
S31508001BC015F0D2FA41EC180BD9F8000015F0CCFA4A
S31508001BD006F1080441EC100BB0EE481AF0EE681A4C
S31508001BE02146052007AAFFF76BFE07991F22F16019
S31508001BF0052038F055F815F0A5FA01F1004115F061
S31508001C00A5FDB061D5E700BF140014001400243FF9
S31508001C103A9B0508BE9A0508E2B50408519B0508D3
S31508001C205C8405082A9A0508379A05084FB60408F9
S31508001C30BC830508749B050880000038A00020397D
S31508001C4031A003088000803723A003080080FFFF27
S31508001C508E9B0508000000386F120333C79B0508E2
S31508001C60D39B0508A79B0508E89B05080000803755
S31508001C706F1283320000F03EEF9B0508FB9B0508B8
S31508001C80109A0508079C05080000803B0C9C05086F
S31508001C90B8F1010F0FD04046666919F06FFB05468B
S31508001CA0012019F06BFB104BCDE9025001930F4B45
S31508001CB0009385233DE7287F01280ED0666919F031
S31508001CC05DFB0546404619F059FB074BCDE9025026
S31508001CD00193074B009386232BE7D9F8000015F0EC
S31508001CE043FAC6E9000164E72E9C0508379A0508F9
S31508001CF02A9A05080348044B834202D0034B03B1D2
S31508001D0018477047584B0320584B03200000000023
S31508001D10064B0749C91A891048BF0131491003D033
S31508001D20044B0BB101481847704700BF584B0320B6
S31508001D30584B03200000000010B5064C237843B921
S31508001D40FFF7D8FF044B13B10448AFF30080012313
S31508001D50237010BD7C28032000000000B08506080B
S31508001D6008B5054B1BB105490548AFF30080BDE82A
S31508001D700840FFF7CDBF00BF0000000058950120BE
S31508001D80B0850608A3F5803A704700BF174B002BAD
S31508001D9008BF134B9D46FFF7F5FF00218B460F46FC
S31508001DA01348144A121A37F02CFA0E4B002B00D09F
S31508001DB098470D4B002B00D09847002000210400BF
S31508001DC00D000D48002802D00C48AFF3008016F02D
S31508001DD017FC2000290034F02EF916F02BF800BF66
S31508001DE0000008000000000000000000D0070020E6
S31508001DF0D0070020804403200000000000000000F7
S31508001E0030B50368544A23F47F4323F0070393420B
S31508001E10044685B065D002F10172934267D04F4AF5
S31508001E20934262D101220225002125200DF10D03DE
S31508001E308DF80D50ADF80E2021F0C8F8044618B3F9
S31508001E40474D4849286833F0E6FE4749286833F085
S31508001E50E2FE32F0D0FB32F0CFFB444B444A00930B
S31508001E6044499E23286833F0D6FE43492346434A0D
S31508001E70286833F0D0FE204602F0FCFA404928686C
S31508001E8033F0C9FE00BEFDE72A4601460DF10E03F2
S31508001E902A2021F09BF8054638B3314C3149206891
S31508001EA033F0B9FE3049206833F0B5FE32F0A3FBB3
S31508001EB032F0A2FB2D4B2E4A00932E49A42320680C
S31508001EC033F0A9FE2C492B462C4A206833F0A3FE92
S31508001ED0284602F0CFFA2A49206833F09CFE00BE55
S31508001EE0FDE78179808813F0A1FD05B030BDB0F813
S31508001EF00530222BF9D1C379012B05D10189007947
S31508001F00C9B213F0DBFDF0E7022B03D1007932F0FA
S31508001F108BF9EAE7124D1349286833F07CFE12491B
S31508001F20286833F078FE32F066FB32F065FB154B15
S31508001F300F4A00930F498523286833F06CFE124A2E
S31508001F401249286833F067FEE2791149286833F0A8
S31508001F5062FE00BEFDE700BFA0000601A00001006A
S31508001F60E89801201DC404080877040823780408A3
S31508001F700D77040883770408927704088F77040896
S31508001F80A77704083B780408B8770408BE770408DE
S31508001F90D677040808B5012000F034FB054B40212C
S31508001FA0186832F0DDF9B0FA80F3034A5B0913705A
S31508001FB008BD00BFD84703207D2803200B460549E6
S31508001FC00246097821B104484021006832F07EB9FA
S31508001FD0112070477D280320D847032073B504468F
S31508001FE01CF084FA00283BD10323E382042301264C
S31508001FF06375A368267643F48013A36034F061F80A
S31508002000A368A0801B030CD4B0F5FA7F09D944F065
S31508002010EBFF05463146304643F0A4FA284644F01D
S31508002020DEFF20461CF08AFA0546D0B90E481EF097
S31508002030F9FB3AF084F83BF038F939F029FE2A46DC
S31508002040012104203AF074F801A88DF804501CF018
S3150800205039FC042003211EF03FF9204632F0E5F84A
S315080020600025284602B070BD224B032038B5054628
S3150800207044F0C3FFAC688CB944F0BAFF4FF0FF31A7
S31508002080686844F0AAFD0028F2D0063006288EBFFC
S315080020900124054B1C5C44F0004403E00023AB60BC
S315080020A044F0A6FF204638BDAD780408F8B50446C6
S315080020B0104E114D114F2046FFF7D8FFB0F5803F5F
S315080020C004D040F2D721304632F05EFA2B6803F08E
S315080020D03803202B07D1284636F0EFFE082138466C
S315080020E032F0ABF8E7E74FF43971304632F04CFA84
S315080020F0F4E700BF4D7804087E2803209495012054
S3150800210038B50446074D2046FFF7B0FFB0F5807F87
S3150800211004D040F2C521284632F036FA25F08AFB6B
S31508002120F1E700BF4D7804082DE9F0411F46036822
S315080021300446884616461BB1DE21114832F024FAB9
S3150800214063681BB1DF210E4832F01EFA00254246AD
S3150800215029460120A56000F0A5FF606058B1304609
S315080021603A46214600F0DAFF0646206030B9606834
S3150800217032F08BF966600120BDE8F0812846FBE75E
S315080021804D7804082DE9F0411C4607460E461546CB
S3150800219041F074FC174B1B68834207D123462A4635
S315080021A031463846BDE8F0411AF0D4B8DFF8608009
S315080021B0D8F8000044F04EFD20B140F2FF210E4849
S315080021C032F0E2F90D4B04211F600D4B09481E60E1
S315080021D00C4B1D600C4B1C6005230C4C236032F025
S315080021E02CF84FF0FF31D8F8000044F0F6FC2068D0
S315080021F0BDE8F081949501204D780408B09501203A
S31508002200AC950120A8950120A4950120A095012050
S315080022107095012010B50748074C32F01DF807489D
S3150800222032F01AF8236823B1206832F00DF900233A
S31508002230236010BD88950120789501207C950120A2
S315080022402DE9F041054608242846FFF70FFF044309
S31508002250E607F9D525F040FC0546002835D1394A68
S31508002260137803F0FD0343F004031370364E374F1B
S31508002270DFF8F480E3062BD50024354E25F03AFC2A
S31508002280FFF7C8FF7068346032F0FFF801226FF07C
S315080022905F012C4B74601A702E4B18781970597898
S315080022A0002D48D00321597099789A70DA78062259
S315080022B0ADB2DA709D809C71264836F0FEFD41F07D
S315080022C0DDFBBDE8F04132F001B944F01004CDE77A
S315080022D060070FD520493368D8F8002038680968A0
S315080022E01AF038F81D4B24F0040418601C4B1868C3
S315080022F044F09DFC25F012FA21070ED525F030FA98
S3150800230058B1144840F01DFA0028B3D14FF4803173
S31508002310144824F0080431F090FF40F03DFA08B95B
S315080023202207A7D40A48FFF7A1FE0443A2D525F041
S31508002330F5F90824E2E75D7099789A70D978DA7029
S31508002340BAE700BF82290320A4950120B095012091
S31508002350949501207E280320AC950120A0950120A4
S31508002360709501207C950120A895012038B500219B
S3150800237001200B4A00F096FE0A4C2060236853B1F0
S31508002380094800F051FE094B18601D682DB92068F0
S3150800239032F07BF82560012038BD0020FCE700BF3D
S315080023A06C790408709501207C79040874950120DD
S315080023B010B5164C236823B140F28111144832F047
S315080023C0E3F8144800F030FE20602368E3B1124BAE
S315080023D0124A13491348FFF7A7FE044690B9124B51
S315080023E0124A13491348FFF79FFE044650B9124B89
S315080023F0124A13491348FFF797FE044610B91248C4
S315080024001AF00EF8204610BD0124FBE77895012046
S315080024104D7804088C790408147A040841220008C7
S31508002420047A040894950120E0790408012100083B
S31508002430D079040888950120AC790408AD200008F5
S315080024409C7904087C950120852100084FF4807149
S31508002450014831F0F2BE00BF8895012002210148EB
S3150800246031F0EBBE9495012008B542F099FDB0B95C
S315080024700E4B187810F0010010D041F0FFFA0C4B03
S315080024801B6883420DD00B4B4FF0FF31186844F0A0
S315080024904BFB0630062806D8074B185C08BD1420E7
S315080024A0FCE72020FAE70120F8E700BF822903208D
S315080024B09495012074950120AD78040808B5084B59
S315080024C01B78DB070BD541F0D9FA064B1B6883420C
S315080024D005D0054B1868BDE8084044F059BB08BD4F
S315080024E0822903209495012074950120024A1378C5
S315080024F043F00103137070478229032008B50A4B7D
S315080025001A7812070DD41A7812F0060F07D11A781E
S31508002510012142F0020205481A7031F08EFE0020B1
S3150800252008BD0220FCE700BF8229032094950120FC
S3150800253008B5FFF71BFF20B140F2E7210B4832F040
S3150800254023F80B490B4825F08FFA20B14FF43B715D
S31508002550064832F019F825F0B9FA30B1BDE8084056
S3150800256040F2FA21014832F00FB808BD387A04085B
S31508002570947A0408447B040808B5FFF7BFFF30B116
S31508002580BDE808404FF44671014831F0FDBF08BD6B
S31508002590387A040810B5044618B94121034831F0C1
S315080025A0F3FF00230E20236010BD00BFC87B04087C
S315080025B0F8B50E460546D0B1C9B10E4B0E4F19688F
S315080025C0386804F0F1FA044678B9062332460B490E
S315080025D0386804F0B7FB044638B901232A46084987
S315080025E0386804F0AFFB00B12C702046F8BD2124F2
S315080025F0FBE700BF40470320604703202C00040088
S315080026003C0004007FB5254A08281388ADF8003039
S31508002610ADF80430ADF80830ADF80C304FF420634F
S31508002620ADF810305388ADF814300ADC00280EDDFA
S31508002630013807280BD8DFE800F00C150A1A0A0A31
S315080026400A1E202821D0402823D0102817D0E1219F
S3150800265016E001220421684602F0DAF8002007B0E5
S315080026605DF804FB042101220DEB0100F4E70122C9
S31508002670042102A8F0E70122042103A8ECE7CA21F5
S31508002680074831F081FF0E20E9E70122042104A85A
S31508002690E2E70122042105A8DEE700BFA37C0408BF
S315080026A0347C040808B5074844F0D7FC36F010FC1B
S315080026B00120FFF7A7FF4020FFF7A4FFBDE8084069
S315080026C000F056BAC4910408014844F0C6BC00BFDD
S315080026D0C49104082DE9F0414B1E012B80460E4695
S315080026E08CB000F29B804E4F04AC3D460FCD0FC414
S315080026F095E80F0084E80F003B8C4A48ADF8003097
S315080027007B8C0124ADF80430BB8C474DADF80830FE
S3150800271044F0A3FC454844F0A0FC03A9032044F078
S3150800272097FC00220121684602F072F80421002273
S315080027300DEB010002F06CF80022042102A802F059
S3150800274067F80D234FEA881103988DF828308DF81D
S31508002750194008F0C5F90323A64208BF8DF8116091
S3150800276009908DF81B408DF8133004A930486C6029
S3150800277008F056FA04230D226C616B612D4B1A6220
S315080027802D4A1A634FF003125A6302F500325A6251
S3150800279003F0A0F90021294803F02EF9044620B1D8
S315080027A0012420460CB0BDE8F081254A012ED378D5
S315080027B023F03C0343F03403D370D37C23F03C036B
S315080027C043F03403D37412D101461E4803F014F9BA
S315080027D00028E5D11C4AD37823F03C0343F03403A0
S315080027E0D370D37C23F03C0343F03403D37444F012
S315080027F0FBFB01210546084642F0B4FE284644F094
S31508002800EEFB124B124A1E7000231370114A137006
S31508002810114A13700122114B1A70C2E72124C0E72E
S31508002820A87C0408C491040800100A509C91040866
S3150800283000000A5000C8035003000400B8950120A0
S31508002840A4460320B4950120844603208329032047
S315080028508729032086290320852903208429032024
S31508002860184B73B51B78002B28D0174D2C783CBB1A
S31508002870164A174E13681748334003431360136903
S3150800288015493340034315489160136191610094DB
S31508002890134B1449006803F05BF9134B1B78012BA3
S315080028A007D1124800942346114A1249006803F0DA
S315080028B04FF9012300202B7002B070BD1120FBE7F1
S315080028C00220F9E78429032085290320A44603204A
S315080028D00F80FFCFF07F00309EC90120B8950120F8
S315080028E0512A0008D446032083290320B4950120E1
S315080028F084460320C4460320184B2DE9F0411B7873
S3150800290004460D4616461BB3154B1B7813BB154FCD
S315080029103B78FBB9DFF8608098F800304B43B3F595
S31508002920006F19D8104B1B780BB9FFF799FF98F869
S31508002930003000205D430D4B1D600D4B1C6004EB01
S3150800294045045C600B4B1E6001233B70BDE8F081BB
S315080029501120FBE70220F9E72120F7E78429032065
S31508002960872903208629032085290320C09501206D
S31508002970C4950120D09501208329032010B50C4C5D
S31508002980237893B10B4B186842F062FB0A4B1B780D
S31508002990012B03D1094B186842F05AFB0020084B5B
S315080029A020701870074B187010BD0220FCE700BF96
S315080029B085290320B895012083290320B495012091
S315080029C0872903208629032030B500241B4B85B0B0
S315080029D05A8C1B4DADF804201A8C9B8CADF8082038
S315080029E0ADF80C30FFF7CAFF284608F099F82246DA
S315080029F021466C6501A801F00BFF2246214602A874
S31508002A0001F006FF2246214603A801F001FF0D4BFF
S31508002A10186803F039F80C4B186803F035F844F0D9
S31508002A20E3FA05462146012042F09CFD284644F07B
S31508002A30D6FA2046054B1C7005B030BDA87C0408A4
S31508002A4000000A50B8950120B49501208429032076
S31508002A50F8B53B4D2B78002B42D03A4811F0010FC0
S31508002A6000F1100308BF1946374E384B32681C6808
S31508002A7018BF0146A2422CD2CB786FF30513CB7050
S31508002A80334B1B6803EB42038B60A31AB3F5006F45
S31508002A900B8817D940F2FF7402F5006264F30E132F
S31508002AA00B803260C37803F03003302B08D1C37C27
S31508002AB003F03003302B03D100232B70FFF75EFFA2
S31508002AC00120F8BD671EBA1A62F30E130B80346034
S31508002AD0E8E70A681F4B13430B601F4B8B60E1E75F
S31508002AE01E4B1B78002BEBD0C943164801F0010397
S31508002AF000EB0314E2781D01C2F30112032A0FD179
S31508002B00124A46591168164A0139C1F30A01324078
S31508002B1042EA01124251134A52F82330A360CFE722
S31508002B20114A1268002ACBD010490848097800686B
S31508002B30B0FBF1F10B4850F823009047C0E700BFFF
S31508002B4087290320A4460320BC950120C0950120AF
S31508002B50CC950120F07F00309EC9012086290320EC
S31508002B600F80FFCFC4950120D0950120832903202B
S31508002B702DE9F0415E4C92B009AD94E80F0085E866
S31508002B800F000DAA174604F1100304F1200C16468F
S31508002B9018685968083303C663453246F7D118687A
S31508002BA0544B08A93060187944F052FA524844F058
S31508002BB054FA524844F051FA4FF480730898504931
S31508002BC0ADF83430814228BF01460C9707F07AF9F0
S31508002BD029464FF4E0650A904A4807F04FF84948F5
S31508002BE006F09EFE474806F04FFF464806F000FFEF
S31508002BF0B4F82480012204216846ADF8008001F06B
S31508002C0007FEE78C0022012101A8ADF8047001F047
S31508002C10FFFD268D0122042102A8ADF8086001F007
S31508002C20F7FD0122042103A8374CADF80C5001F03A
S31508002C30EFFD364B4FF44870C4F8C8344FF0021312
S31508002C40C4F8C43403F58033C4F8CC341C23C4F860
S31508002C50B4340BF013F807A8ADF81C5001F038FE91
S31508002C6014200BF00BF807A8ADF81C5001F008FE6D
S31508002C7023200BF003F807A8ADF81C5001F028FE36
S31508002C80B921204807F0F8F807A8ADF81C5001F05C
S31508002C90F7FD002204A81146ADF8108001F0B8FD32
S31508002CA0002205A81146ADF8147001F0B1FD012205
S31508002CB0002106A8ADF8186001F0AAFD012200213E
S31508002CC007A8ADF81C5001F0A3FD0E4806F07EFFDC
S31508002CD000230A48C4F8B434C4F8C834C4F8C43461
S31508002CE0C4F8CC3444F0BCF912B0BDE8F08100BF9A
S31508002CF0D07C040844920408C4910408C8910408C6
S31508002D00E070720000C0085000C0035002000100C5
S31508002D100348044A0449121A921031F065BB00BFF1
S31508002D20C0010008C00300088044032008B5154BFD
S31508002D3083F30A8800F030F8FFF7EAFF124B1349CD
S31508002D408B4212D30020124B12498B4218D3FFF73D
S31508002D501DF8186850F82240586840F82240013299
S31508002D6098688242F5D30C33EAE70022F8E71C6834
S31508002D7044F8220001325C68A242F8D30833E4E73B
S31508002D800022F8E700000020B8850608C485060872
S31508002D90C4850608C48506084FF48041144B154AB5
S31508002DA070B59A60D3F88820134D42F47002C3F8C0
S31508002DB08820124A05F5005491664FF0FF322266C4
S31508002DC06FF4003262660D22A2660222C3F8D02092
S31508002DD0BFF34F8FBFF36F8F4FF44036002009F0D3
S31508002DE09DF80020E66009F067F82E6170BD00BF07
S31508002DF000ED00E00000000800800044009000504C
S31508002E00014B1860704700BFE8460320054B186061
S31508002E10054B1B6F03F00703032B01D140F07EBD62
S31508002E20704700BFF0460320008000502DE9F047A8
S31508002E300746DDE9086491469A460D46DFF8DC80C8
S31508002E4049B9082323704FF4D963A360314BC4F8FA
S31508002E500480E360FEE762B1531E134249D008239B
S31508002E60237040F2CB63A3602A4BC4F80480E36066
S31508002E70FEE744F0C2F84FF00409D1454B4638BF87
S31508002E805346D7F808C0591E11EA0C0FC3F10002C1
S31508002E9008BF002302EA0C021A4415440AF1FF335C
S31508002EA0CAF1000129401D4018BF55467B682944D0
S31508002EB00133A3EB0C05A1EB0C0C6545164D1BD293
S31508002EC00EB1C91A316040F222731626C4E90235DA
S31508002ED02670C4F8048044F08BF840F2D763A360E8
S31508002EE00C4B2670C4F80480E36000242046BDE835
S31508002EF0F08744F082F8C0E70023B96023704FF4E6
S31508002F00E563C4F80480C4E90235144644F070F851
S31508002F10ECE700BF867D04086E7D0408FA7C040889
S31508002F2073B50C4616461D460BB931F06BFA0023ED
S31508002F3006480093042201233146002C18BF204678
S31508002F400195FFF773FF02B070BD00BFF44603207A
S31508002F501FB50C4B1B78012B0AD142F021F800282B
S31508002F600CBF4FF0FF306FF0050005B05DF804FBAD
S31508002F70684600F0EBF99DF80000003818BF0120FC
S31508002F804042F2E7F24203201FB542F009F858B969
S31508002F90074B1B78012B02D0684600F065F94FF005
S31508002FA0FF3005B05DF804FB6FF00500F9E700BFD8
S31508002FB0F242032030B585B0054641F0F1FF68BB03
S31508002FC0BDB9182014F048FF044638B30123154943
S31508002FD0037400226B462046626100F0E3FA9DF80E
S31508002FE00030E3B1237C012B18D1204614F03CFFB6
S31508002FF014E0AC6864B9182014F02EFF044668B1D2
S31508003000012323742968074B002908BF1946E0E7FE
S31508003010EB68172B02D914F00303F2D000242046DC
S3150800302005B030BD9B7D040830B585B0054641F036
S31508003030B7FF58BBADB91C2014F00EFF044628B3E1
S315080030400123174903766A46204600F0A7FB9DF838
S315080030500030FBB1237E012B18D1204614F004FF63
S3150800306014E0AC6864B91C2014F0F6FE044668B196
S315080030700123237629680A4B002908BF1946E2E787
S31508003080EB681B2B02D914F00303F2D00024204668
S3150800309005B030BD15B16B6803F001036376F6E73A
S315080030A0C97804087FB504460E46154641F078FFF0
S315080030B068BB64B3B5B9182014F0CEFE044630B325
S315080030C00123154903746B463246204600F04EFC30
S315080030D09DF80030E3B1237C012B18D1204614F06B
S315080030E0C3FE14E0AC6864B9182014F0B5FE0446B3
S315080030F068B1012323742968074B002908BF1946BC
S31508003100E1E7EB68172B02D914F00303F2D0002489
S31508003110204604B070BD00BFA67D04082DE9F04F17
S3150800312091B0834617460B9141F03AFF90B9BBF12F
S31508003130000F0FD09FB9B42014F08EFE044648B194
S315080031404FF4806014F088FE0546002878D12046A2
S3150800315014F08AFE0024204611B0BDE8F08FBC6842
S31508003160A4B9B42014F078FE04460028F2D001264B
S31508003170D7F814A0BAF1000F0FD14FF4806014F0FD
S315080031806BFE054660BB002EE4D0E0E7FB68B32B78
S31508003190E0D914F00306EBD0DCE73D6945B95046A3
S315080031A014F05AFE05460028EDD04FF0010802E05B
S315080031B015F00708E7D1D7F80090284BBF69B9F191
S315080031C0000F08BF9946002F43D07B1C43D0372FEA
S315080031D00BDDB8F1000FD6D0284614F045FED2E72D
S315080031E04FF001084FF4806AE5E7C7F13707FFB2E9
S315080031F000220CAB1A4904F1840000F0D3F99DF8BB
S3150800320030200CAB002AE4D108930723CDE9062326
S31508003210144BCDE9042203EA9A03CDE90223494671
S315080032200B9B5A462046CDE9007500F07BFC9DF8BD
S315080032303030002BCDD184F8AD8084F8AC608AE7B5
S315080032404FF001081F2746464FF4806ADFF80C90B6
S31508003250CEE71F27CCE74027CAE700BFB07D0408A2
S31508003260BA7D0408FEFFFF3F70B5044608B931F081
S31508003270C9F8254B1E78012E09D013232370234B3A
S31508003280636040F20343A360214BE360FEE7214BF2
S315080032901B88012B09D8092323701C4B636040F255
S315080032A00E43A3601A4BE360FEE71B4D2B784BB128
S315080032B01F232370154B636040F21143A360144B20
S315080032C0E360FEE743F09FFE48B11F2323700F4BD0
S315080032D0636040F21443A3600D4BE360FEE741F0E0
S315080032E083F90E4B0E4A18700E4B2E7018700E4B43
S315080032F053F8303013600D4A136000F019FFBDE82B
S31508003300704031F07FB800BFF1420320CC7D04083D
S315080033107B7E0408A2C90120F2420320EF42032063
S3150800332024960120F0420320D896012028960120F1
S3150800333000231946044A0133402BC2E9001102F161
S315080033400802F8D1704700BFD896012070B5044628
S3150800335008B931F057F8714D6A68D2B12B68704ECA
S315080033604BB92346296B6F489200FFF7D9FD3060A9
S3150800337023780BB170BD336032686B4B6B491A60AA
S315080033806B686B4A13606B4A9B0013600A681A44A1
S315080033900A602A89BAB10C2623467243296B664805
S315080033A0FFF7BEFD654B18602378002BE2D1644B0E
S315080033B0644A18602B895D4913807343624A136017
S315080033C00A681A440A606A6A002A28D02B6A5F4E7D
S315080033D0002B37D12346296B5D489200FFF7A0FDE5
S315080033E030602378002BC5D1642195F82820594BE5
S315080033F01A703268584B1A606B6AEA685A43B2FB0D
S31508003400F1F256490A60564AE96A1360554A9B0022
S315080034101360554A116045490A681A440A606B6B7D
S31508003420524E336000F04EFF0AF06AFB054658B16B
S31508003430012323704E4B63604FF4DA73A3604D4B40
S31508003440E36097E73360CFE742F006FD36684A4BFC
S31508003450B0420246186009D209232370444B6360C0
S315080034604FF4DD73A360434BE360FEE744D02B467D
S315080034700020012114F002FA7043404BB6F57A7F1A
S31508003480186009D9002332460020012114F0F6F904
S315080034904FF47A7303FB00F50021394B1D60394B55
S315080034A01970394B1970394B1960394B1960394BFA
S315080034B01970394B19701E4B1A68FAB90022374B26
S315080034C01A7000F04BFAFFF733FF1E4B1B88EBB957
S315080034D0204600F015FB2378002B7FF44BAF2046DF
S315080034E000F0C4FD2378002B7FF444AF31F01AF8BE
S315080034F001222B4B1A703DE72846BEE70A4B18688F
S315080035000028DBD0920035F07CFED7E7204600F095
S3150800351013F92378002BDBD02CE700BF08470320DC
S315080035200C9601203C7E040800960120D4950120C3
S31508003530FC950120F89501204F7E04080896012085
S31508003540F4950120A0C90120F095012004960120D8
S31508003550617E0408EC420320E8950120E4950120E9
S31508003560E0950120DC950120EC950120D8950120F5
S31508003570CC7D0408837E0408109601201496012049
S3150800358018960120F2420320EE42032028960120D5
S3150800359024960120F0420320EF420320ED42032047
S315080035A0F14203202DE9F047054692461C460BB921
S315080035B030F028FF41F0F4FCDFF864800646164F29
S315080035C038B1202323705523C4E90237C4F8048090
S315080035D0FEE73DB90A2323705823C4E90237C4F825
S315080035E00480FEE743F009FD81461022314628464D
S315080035F035F007FE094B281D2B60C5F80CA030F0E6
S3150800360092FF484643F0F4FC70232670C4E902375B
S31508003610C4F80480BDE8F0871E7F0408464C41477D
S31508003620A47E0408034B043040F8043C002383605E
S3150800363030F079BF4E4F4E452DE9F84380460F4688
S3150800364014460AB930F0DEFE41F0AAFC054640B140
S3150800365020232370344B6360A623A360334BE360B7
S31508003660FEE7334B1B78012B5AD1B8F1000F08D16E
S315080036700A2323702C4B6360AF23A3602B4BE360B4
S31508003680FEE7D8F800202B4B9A4208D00C2323706B
S31508003690254B6360B223A360244BE360FEE743F047
S315080036A0ACFC814667B1012F29D043F0A1FC082361
S315080036B023701D4B6360E723A3601C4BE360FEE7A2
S315080036C0D8F8043083B94046FFF7ACFF484643F0C4
S315080036D08FFC3846C423144A2070C4E90123134BCF
S315080036E03846E360BDE8F88343F082FC2E20C72302
S315080036F0F1E702220021304643F008FB3D46D8F8A0
S3150800370004606F1C002EF4D14046FFF78BFF484635
S3150800371043F06EFCAFB240F0BDF93046E223DAE77B
S315080037200220AA232F46D6E7A47E0408147F04089D
S31508003730F2420320464C4147F0B50025124B1C685F
S31508003740124B04F10C011E882B46721E92B2AFB2C0
S31508003750BA4211D80C214A43A350A1180C4A4B600F
S315080037600B81D3809680146003700A4B43605D23F7
S315080037708360094BC360F0BD41E9031321F8043C9B
S3150800378001350C31E3E700BFF4950120A0C90120FB
S31508003790D8980120417F0408B07F04082DE9F84332
S315080037A0054614460AB930F02DFE41F0F9FBDFF85C
S315080037B064800646154F38B1202323705223C4E986
S315080037C00237C4F80480FEE73DB90A23237055235F
S315080037D0C4E90237C4F80480FEE743F00EFC182259
S315080037E031468146284635F00CFD2846084B40F8F8
S315080037F0043B30F098FE484643F0FAFB6C232670EB
S31508003800C4E90237C4F80480BDE8F8833B8004089D
S315080038104D555458BF7F0408044B03600023C0E984
S3150800382003330375043030F07EBE00BF4E4F4E455D
S315080038302DE9F04105460F4614460AB930F0E2FD77
S3150800384041F0AEFB064640B1202323703F4B636030
S31508003850A523A3603E4BE360FEE745B90A23237020
S315080038603A4B6360A823A360394BE360FEE72A68F6
S31508003870384B9A4208D00C232370344B6360AB2331
S31508003880A360334BE360FEE7334B1B78012B58D11B
S3150800389043F0B3FB804667B1012F2CD043F0A8FB59
S315080038A008232370294B6360F323A360284BE36046
S315080038B0FEE76B68ABB9286910B1294643F047FBA8
S315080038C02846FFF7A9FF404643F092FB0022C32390
S315080038D022701E4A3846C4E901231D4BE360BDE841
S315080038E0F08143F085FB2E22C623F1E70222002150
S315080038F043F00CFA3E466868771C0028F6D12F6913
S315080039009FB12946384643F022FB97F8281097F8C6
S3150800391027308B4209D0384643F025FB814228BF21
S3150800392001463846C9B241F051F82846FFF774FFF8
S31508003930404643F05DFBB7B240F0ACF80022EE23F8
S31508003940C6E70222AF230746C2E700BFBF7F0408C7
S31508003950308004084D555458F24203200022024B89
S31508003960C3E90022704700BF1C9601202DE9F047E5
S31508003970054692461C460BB930F044FD41F010FB53
S31508003980DFF864800646164F38B120232370582383
S31508003990C4E90237C4F80480FEE73DB90A23237058
S315080039A05B23C4E90237C4F80480FEE743F025FB2D
S315080039B0814610223146284635F023FC094B281D3E
S315080039C02B60C5F80CA030F0AEFD484643F010FB5E
S315080039D073232670C4E90237C4F80480BDE8F0876B
S315080039E0D980040853454D4161800408034B0430CF
S315080039F040F8043C0023836030F095BD4E4F4E4599
S31508003A002DE9F84380460F4614460AB930F0FAFC09
S31508003A1041F0C6FA054640B120232370344B636053
S31508003A20A923A360334BE360FEE7B8F1000F08D182
S31508003A300A2323702E4B6360AC23A3602D4BE360EF
S31508003A40FEE7D8F800202C4B9A4208D00C232370A6
S31508003A50274B6360AF23A360264BE360FEE7274B43
S31508003A601B78012B40D143F0C8FA814667B1012F74
S31508003A7029D043F0BDFA082323701D4B6360E52364
S31508003A80A3601C4BE360FEE7D8F8043083B94046D0
S31508003A90FFF7ACFF484643F0ABFA3846C423144A4E
S31508003AA02070C4E90123134B3846E360BDE8F88368
S31508003AB043F09EFA2E20C723F1E702220021304662
S31508003AC043F024F93D46D8F804606F1C002EF4D163
S31508003AD04046FFF78BFF484643F08AFAAFB23FF0FD
S31508003AE0D9FF3046E023DAE70220B3232F46D6E78C
S31508003AF061800408D080040853454D41F2420320F2
S31508003B000023054A13800370044B436040F61F03E5
S31508003B108360034BC3607047A2C90120F98004087B
S31508003B20698104082DE9F04F89B005931A9CDDE9EF
S31508003B3013830493189B05469DF848B0DDF8549006
S31508003B40BDF864A0039206930CB930F05BFC41F013
S31508003B5027FA534F534E30B120232370F023C4E97C
S31508003B6002366760FEE735B90A232370F323C4E9F2
S31508003B7002366760FEE7039B33B90A232370F623F0
S31508003B80C4E902366760FEE7B8F1000F06D10A23DA
S31508003B902370F923C4E902366760FEE7424B1B68C7
S31508003BA04B4506D908232370FC23C4E9023667600F
S31508003BB0FEE7049B994506D808232370FF23C4E92A
S31508003BC002366760FEE7BBF13F0F07D9082323706B
S31508003BD04FF48173C4E902366760FEE7079028460A
S31508003BE030F0A5FC40F20B1307991AF0030FC4E94D
S31508003BF002362170676007D01AF0020F04D04046DB
S31508003C004FEA890235F0FDFA049B424623F0070382
S31508003C10CDE9009A0599039808EB830300F074FB35
S31508003C2080450AD9322323704FF494736760C4E938
S31508003C300236039030F0E6FB0398069B28606B601B
S31508003C4000232846C5E91B336B6785F827B085F836
S31508003C5028B0C5F81480C5F83090A5F834A030F01F
S31508003C608AFC43F0CAF9044695F8270040F092FC0E
S31508003C7028463FF0F1FF0D4A20461388013313808A
S31508003C800B4B1B78012B04D009B0BDE8F04F43F06D
S31508003C90AFB943F0ADF909B0BDE8F04F3FF0FABE51
S31508003CA0F98004087F810408C87D0408A2C9012098
S31508003CB0F24203202DE9F04104460D4609B930F0D9
S31508003CC0A1FB41F06DF948B120232B70564B6B6070
S31508003CD04FF4DA73AB60554BEB60FEE7544B1B7839
S31508003CE0012B0AD002232B704F4B6B604FF4DC7309
S31508003CF0AB604E4BEB60BDE8F0812CB943F07DF923
S31508003D004C4B1C6843F074F943F077F994F8263065
S31508003D108046072B08D8013B062B0DD8DFE803F0B1
S31508003D204B31310F4B313100FF2B73D043F060F923
S31508003D30BDE8F04130F066BB20463FF0BDFFE36AC0
S31508003D4013B1204643F01CF9204630F015FC3A4AD8
S31508003D5020461388013B138030F0E9FBFF234046D9
S31508003D6084F8263043F044F900232B702E4B6B6001
S31508003D7040F23123AB602D4BEB60BDE8F0413FF0DC
S31508003D8089BE94F82420082A09D80123934013F4FD
S31508003D90B17F07D113F0850F07D1042A14D030F06C
S31508003DA031FB02E0204642F08AFF94F8263003F001
S31508003DB0FB03032BC3D104F1440041F0B5FF0028EF
S31508003DC0BDD030F01FFBBAE7236A20461E6996F875
S31508003DD0277042F074FF96F8273096F828209A4202
S31508003DE00CD094F827209A4208D1304643F0BBF805
S31508003DF096F82870874228BF0746FFB2002384F842
S31508003E00243096F82730BB42CFD03946304640F0AA
S31508003E10DDFDCAE743F0ECF81F232B70024B6B60FD
S31508003E2040F2072364E700BFF98004087581040897
S31508003E30F242032028960120A2C90120002200B5DB
S31508003E4089B004AB00931146034803AB40F0E4F98C
S31508003E5009B05DF804FB00BFBC9601201FB5002120
S31508003E606A46034840F0DCFA05B05DF804FB00BF7B
S31508003E70BC9601202DE9F84F0D9C054690461F4635
S31508003E80BDF828900CB930F0BDFA41F089F8DFF892
S31508003E90DCB0344E38B177232022C4E902362270CA
S31508003EA0C4F804B0FEE73DB97A230A22C4E902360B
S31508003EB02270C4F804B0FEE7B9F1010F15D0B9F1C4
S31508003EC0020F1DD13FB97F230822C4E902362270AA
S31508003ED0C4F804B0FEE70B9BD3B982230A22C4E9CF
S31508003EE002362270C4F804B0FEE7B8F1000F0FD10D
S31508003EF086230822C4E902362270C4F804B0FEE715
S31508003F008A230822C4E902362270C4F804B0FEE700
S31508003F10DFF85CA09AF80020012A01D1FFF78EFF8E
S31508003F2024220021284635F06CF9012285F8222042
S31508003F300D4A0B9B2A600C9AC5E90687AA609AF86F
S31508003F400020A5F82090012A6B6001D1FFF786FFB3
S31508003F500022AD232270C4E90236C4F804B0BDE8D5
S31508003F60F88F00BFEA820408544D52205182040893
S31508003F70F24203200023064AC0E90533C0E90133AB
S31508003F80C0E9033380F822300260C36103847047B6
S31508003F904E4F4E4570B505460C4609B930F032FA13
S31508003FA040F0FEFF40B1202323702C4B6360D023E2
S31508003FB0A3602B4BE360FEE745B90A232370274B22
S31508003FC06360D323A360264BE360FEE72A68254B8C
S31508003FD09A4208D00C232370204B6360D623A36033
S31508003FE01F4BE360FEE7204B1E78012E0AD0022302
S31508003FF023701A4B06466360DA23A360184BE36006
S31508004000304670BDFFF71AFF95F82230032B22D8E9
S31508004010DFE803F017120212284640F06FFFFFF799
S31508004020A9FFEB23002222700C4AC4E901230C4B9A
S31508004030E360FFF713FFE3E72846FFF79BFFF52347
S31508004040F0E713232370054B6360FA23A360044B40
S31508004050E3600026EDE730F0D5F9FAE75182040867
S31508004060E1820408544D5220F242032010B5002282
S3150800407004461B4B8AB01A6040F01AFD2378002BC1
S315080040802AD1184B1B68002B28D0B0FBF3F3164A2D
S3150800409016491360164A174813600022164B1A6011
S315080040A02246FFF77BFB2378B3B90B22CDE904330D
S315080040B0CDE90632114A0894126811490392114A49
S315080040C0114812680292114A12680192104A12782F
S315080040D00092104AFFF726FD0AB010BD0A23D4E75E
S315080040E0D4960120EC95012030960120C082040860
S315080040F02C960120BC96012034960120E0950120DB
S31508004100CD820408E495012038960120E89501201F
S31508004110EC4203202D4F0408B0FA80F0704790FA5D
S31508004120A0F0B0FA80F0704790FAA0F0704700BF90
S3150800413072B64EF62250CEF2000040F2FF01C0F2EF
S3150800414000010170002080F3098880F30A8849F687
S31508004150E400C2F20100016881F3088849F6E0002C
S31508004160C2F20100016881F30A8842F02CFF44F28A
S31508004170F020C2F2030044F2EF21C2F203010A78EA
S31508004180027049F22860C2F2010049F22461C2F2C3
S3150800419001010A680260002080F30B88106880F32A
S315080041A0098802F10802116881F30B88EFF314807D
S315080041B040F0020020F0040080F31488BFF36F8FEC
S315080041C0BDE8F04F0FBCBDE8005006BC62B6084714
S315080041D03A484FF080510160704738484FF0805197
S315080041E001607047302080F3118849F22862C2F2D4
S315080041F001021168002901BF314A136823F001033F
S3150800420013600ED0EFF309801EF0100F08BF20EDE3
S31508004210108A20E9F04F49F22865C2F2010529689B
S315080042200860744642F0CFFE49F22861C2F20101E5
S3150800423049F22460C2F2010003680B6044F2F022DE
S31508004240C2F2030244F2EF21C2F2030108781070A9
S3150800425044F0040E002080F30B88002B0DD018685C
S31508004260B0E8F04F1EF0100F08BFB0EC108A80F3CC
S315080042700988996881F30B881BE049F6E401C2F2C4
S3150800428001010868A0F11C0080F3088840F20001CB
S31508004290C0F20011C16144F26F51C0F60301816199
S315080042A044F69521C0F6040141614FF6F97ECFF632
S315080042B0FF7E002080F311887047000004ED00E0BF
S315080042C034EF00E00C4B0D491A680D4B1B6803F1DF
S315080042D08043013B02EB830323F007030B60094B82
S315080042E01A604FF0E023D3F8343F03F04043B3F1AC
S315080042F0404F00D0FEE7704700960120E498012061
S31508004300FC950120E098012010B5029C6FF0020C84
S3150800431002EB84024FF0807422F0070242E902049D
S3150800432015484FF0123442F80C0C4FF0033042E9AE
S3150800433005044FF0023042E907304FF0113342F8D6
S31508004340201C42E90A3C4FF010314FF009334FF078
S31508004350083042E90C314FF007334FF0063442E992
S315080043600E304FF00533104642E910344FF004334F
S3150800437040F8443D10BD00BF954A040838B50446C8
S315080043800D4601B118B93721034830F0FDF8236806
S315080043902B60256038BD00BF0183040838B5044684
S315080043A00D4601B118B94521044830F0EDF82368E7
S315080043B013B92B60256038BD1C46F8E7018304084D
S315080043C010B5044618B95621044830F0DDF82068BF
S315080043D018B1036823600023036010BD0183040835
S315080043E038B504460D4601B118B98921064830F09A
S315080043F0CBF823682BB1AB4204D12B68236000238A
S315080044002B6038BD1C46F4E70183040870B5D0B1AB
S31508004410C9B10E4E431E013913F8014F2046325DCD
S3150800442002F00302012A11F8012F08BF04F1200047
S31508004430B55C05F00305012D08BF2032801A01D1AD
S31508004440002CE9D170BD0120FCE700BFED7D050811
S3150800445008B507F0EBFD014B186008BDE898012088
S31508004460024B0349186831F0D6BB00BFE898012013
S31508004470B87D040870B50C4C0C490646206831F026
S31508004480CAFB07F0D3FD0546206807F099FD3046BC
S31508004490FFF7E6FF284607F093FD20680449BDE8C4
S315080044A0704031F0B8BB00BFE89801206483040867
S315080044B0668304081FB5B0B101680C4A914204D15D
S315080044C090F82230013B022B03D9002005B05DF895
S315080044D004FB6946FFF75EFD9DF800000028F4D04E
S315080044E040F40040F2E72220F0E700BF544D522086
S315080044F02DE9F04F8BB005469A4689469DF850B08F
S31508004500049239B9BBF1000F04D0212420460BB020
S31508004510BDE8F08F0DF11808404640F0C9FA9DF83D
S31508004520184014B144F40044F0E7224B1A684FF4DB
S315080045307A735A43571E44F1FF36E9FB0076234641
S3150800454031463846059213F099F9059A81469742FD
S3150800455076F100060B46D8D34FF0FF32824274EB51
S315080045600303D2D3BBF1000F18BF0646284606BF81
S31508004570002601270227FFF79DFF04460028C5D11C
S31508004580049B4A46CDE9007328463346CDE902A87E
S315080045900949FFF76FFC9DF8183013B143F400443E
S315080045A0B4E74146284640F027FC9DF81830002B12
S315080045B0ACD0F3E7309601206983040807B50820D4
S315080045C030F0CDF80222064B6846CDE9002330F0DC
S315080045D014F8082003B05DF804EB30F0CBB800BF40
S315080045E0006A181030B5056887B0AB8804461E48BF
S315080045F0ADF80C3042F031FD0022012103A800F08D
S3150800460007F90DF10B0103A800F0BEF99DF80B3070
S3150800461083F001032B70AB79022B19D14FF0FF33CE
S315080046200022CDE904330094104B04A903A800F036
S315080046307BFA049B009401330C4B0CD1042205A988
S3150800464003A800F0D5F918B16F2109482FF09CFF8F
S31508004650002007B030BD012205A903A800F0C8F95B
S315080046600028F5D07E21F0E7C4910408A346030884
S3150800467073830408002307B52948019342F0EDFC2B
S315080046804FF44073012204216846ADF8003000F06B
S31508004690BFF80122234B0520C3F8442401A942F0A0
S315080046A0D7FC002839D1204BD3F8F02042F001027C
S315080046B0C3F8F020D3F8FC2042F08072C3F8FC203F
S315080046C01A4AA3F55D431A60019B194A03F5D523D7
S315080046D003F2FC43B3FBF2F3164A013B13610223D0
S315080046E0C2F8F0304FF48073C2F804334FF06043D9
S315080046F0114AC3F8B02F114AC3F8802ED3F8002EFA
S3150800470042F48072C3F8002EFF2283F82020D3F8E3
S31508004710002E22F48072C3F8002E03B05DF804FB65
S31508004720C491040800D0035000ED00E0FF030040E8
S31508004730F8590D00000004E055CEACC5090001008B
S315080047404FF06043D3F8802E30B5D20715D5012433
S315080047500B4D8440D5F8FC2042F08072C5F8FC2049
S31508004760D3F8002E2243C3F8002E53F82020002A3F
S31508004770F0D003F82010002030BD1120FCE700BF60
S3150800478000ED00E0F8B504460127124D04B314F015
S3150800479001000BD0002024F0010405EBC0021668C6
S315080047A0002EF3D05168C0B2B047EFE72246013079
S315080047B020284FEA520201D0D307F8D507FA00F2AB
S315080047C00F2824EA0204E8D905EBC0021038E6E708
S315080047D0F8BD00BFEC98012008B50C4842F03DFC36
S315080047E0272007F083FB28B1272007F097FB27200F
S315080047F007F062FB282007F079FB28B1282007F08C
S315080048008DFB282007F058FB002008BDC49104083A
S31508004810F8B50D461746044628B9184889212FF0D9
S31508004820B3FE2220F8BD0F2903D98C2113482FF097
S31508004830ABFE23782BB1012B1AD0022B1BD0032BEE
S3150800484005D140F2FF736278D340DB0703D48D218C
S315080048500A482FF099FE42F0D0FB06463A4629460A
S31508004860204605F033FC304642F0C2FB0020D9E76B
S3150800487040F2FF13E7E743F6FF73E4E7E58304082E
S3150800488010B5044628B91148CF212FF07DFE222005
S3150800489010BD03782BB1012B12D0022B13D0032B9A
S315080048A005D140F2FF736278D340DB0703D4D221E7
S315080048B006482FF069FE204640F054FC0020E7E742
S315080048C040F2FF13EFE743F6FF73ECE7E5830408CE
S315080048D010B5044628B91148DF212FF055FE2220CD
S315080048E010BD03782BB1012B12D0022B13D0032B4A
S315080048F005D140F2FF736278D340DB0703D4E22187
S3150800490006482FF041FE204605F0F8FA0020E7E7B2
S3150800491040F2FF13EFE743F6FF73ECE7E58304087D
S3150800492070B50D46044600B131B916484FF4817189
S315080049302FF02AFE222070BD03782BB1012B1AD046
S31508004940022B1BD0032B05D140F2FF736278D340AC
S31508004950DB0704D440F205110A482FF015FE42F091
S315080049604CFB0646204605F027FB2870304642F0E9
S315080049703FFB0020DFE740F2FF13E7E743F6FF734C
S31508004980E4E700BFE583040870B50D46044600B1A8
S3150800499031B916484FF48C712FF0F6FD222070BD00
S315080049A003782BB1012B1AD0022B1BD0032B05D170
S315080049B040F2FF736278D340DB0704D440F21B1140
S315080049C00A482FF0E1FD42F018FB0646204605F09E
S315080049D0C3FA2870304642F00BFB0020DFE740F2AE
S315080049E0FF13E7E743F6FF73E4E700BFE583040830
S315080049F02DE9F0410D4616469846044600B139B9E8
S31508004A00324840F279112FF0BFFD2220BDE8F0812F
S31508004A100278002A4CD0012A4ED0022A09D0032A4D
S31508004A2046D0FF2A0BD04FF4BE7128482FF0ACFDB4
S31508004A3005E043F6FF734278D340DA07F3D5022E32
S31508004A4006D9042E04D040F27D1120482FF09CFD93
S31508004A5042F0D3FA23780746FF2B05D03246204684
S31508004A60296805F0A5FB28602B68013309D123784E
S31508004A70FF2B06D1164B6078D3F8241430F08FFD3F
S31508004A8028602A68531C1BD01249069B41F83280BD
S31508004A9001EBC2014B602378FF2B04D0012393401E
S31508004AA00D4AC2F82434384642F0A2FA0020ADE78F
S31508004AB040F2FF736278BFE740F2FF134278BBE724
S31508004AC0384642F095FA2D20A0E700BFE583040892
S31508004AD000C00350EC98012000D003500F2838B5C9
S31508004AE0054606D90D484FF4D2712FF04DFD212009
S31508004AF038BD42F082FA01230024094AAB40C2F8C5
S31508004B002034C2F82434074B43F8354003EBC50379
S31508004B105C6042F06DFA2046EAE700BFE5830408C8
S31508004B2000E00350EC9801202DE9F0410D4690462F
S31508004B301F46044600B139B9274840F2D7112FF06D
S31508004B4023FD2220BDE8F0810178002937D001290C
S31508004B5039D0022909D0032931D0FF290BD04FF4C7
S31508004B60ED711D482FF010FD05E043F6FF734278FE
S31508004B70D340DA07F3D542F040FA23780646FF2BEE
S31508004B8005D042462046296805F008FC28602A68B0
S31508004B90531C1CD01149069B103241F8327001EBA8
S31508004BA0C2014B602378FF2B04D0012393400C4AA3
S31508004BB0C2F82434304642F01BFA0020C2E740F21D
S31508004BC0FF736278D4E740F2FF134278D0E73046A5
S31508004BD042F00EFA2D20B5E7E5830408EC9801208B
S31508004BE000D0035008B505F017FA054B00F055300C
S31508004BF020F0A040C3F82004BDE80840FFF7C2BD76
S31508004C0000E0035008B505F007FA054B00F0AA3096
S31508004C1020F02040C3F82004BDE80840FFF7B2BDE5
S31508004C2000E0035038B5036805461C68B4F1B64F72
S31508004C3023D0164B9C4222D003F580439C4220D0B9
S31508004C4003F580439C4220D12C2007F017F9204613
S31508004C5030F0BFFC20460E4905F06CFC2B7993B961
S31508004C6095F87E30002B14BF4FF4FC614FF4F861C1
S31508004C702046BDE8384005F021BC2920E5E72A2072
S31508004C80E3E72B20E1E70349F2E738BD00000B50C4
S31508004C90FFFF1F00E4060100B0F1B64F10B5044649
S31508004CA00FD00B4B98420CD003F58043984208D09E
S31508004CB003F58043984204D040F2591105482FF075
S31508004CC063FC6368DB0744BF0823E36010BD00BFCD
S31508004CD000000B504C840408B0F1B64F10B50446DA
S31508004CE00FD00B4B98420CD003F58043984208D05E
S31508004CF003F58043984204D040F2291105482FF065
S31508004D0043FC6368DB0744BF0423E36010BD00BFB0
S31508004D1000000B504C8404082DE9F74F9A460368A7
S31508004D20C7881D6802237E007F2F80F87C300446E2
S31508004D30B3B2884691464FF0000B06F0FE061BD923
S31508004D401B0A03F00603B34643F0F0062FF01EFDD8
S31508004D5000900D9BBBB12FF019FD009BC01A0D9B4F
S31508004D60984210D32023EB600B23072284F87D306A
S31508004D70104603B0BDE8F08F90F87E30012B08BFCF
S31508004D8046F00106E2E7284605F0F2FB10F4C06299
S31508004D90034617D06A490090284605F0CBFB202227
S31508004DA0009BEA6099054FF000024CBF04230523D7
S31508004DB084F87C2047BF84F87D3031222F2284F87E
S31508004DC07D30D5E794F87C1002390B2900F2AE80C5
S31508004DD0DFE801F0061133ACAC3D47AC4E60759880
S31508004DE0284605F0FBFC3146284605F0DFFB032381
S31508004DF0A4F87C30ADE75A0613D54021284605F0BD
S31508004E0099FB7F2F07D95946284605F0CFFB04237F
S31508004E1084F87C309DE794F87E30012B40D10C2332
S31508004E20F6E7180695D58021284605F083FB28461F
S31508004E3005F0F6FC40F20D23DAE75906F1D54021D4
S31508004E40284605F077FB94F87E30012B28D12846B2
S31508004E5005F0C4FC284646F0010105F0A7FB082327
S31508004E60D6E75A06DDD54021284605F063FBD6E786
S31508004E70636F4B4508D25A1C626718F80310284618
S31508004E8005F094FB0B23C3E794F87E30022B31D14F
S31508004E900723BDE7580605D54021284605F04AFBF5
S31508004EA00A23B5E719067FF554AF8021284605F091
S31508004EB041FB284605F0B4FC40F20D3398E79A0604
S31508004EC07FF547AF2021284605F034FBA36F0C9ADF
S31508004ED0934208D25A1C2846A267019305F082FB22
S31508004EE0019B0AF80300A36F0C9A2846934206D141
S31508004EF0FFF7D2FE284605F093FC0D2388E7FFF757
S31508004F00EBFE26E7DB057FF524AF4FF480712846D4
S31508004F10009205F00FFB94F87D30022B0CD0032B82
S31508004F200CD00123009A84F87D3021E74FF4006302
S31508004F300122A4F87C301BE72D2219E7062217E781
S31508004F40FFFF1F0073B5054600284FD003681C688D
S31508004F50B4F1B64F08D0284A24F48041914203D0D0
S31508004F6002F50042944243D1187901A942F070F83B
S31508004F70064600283ED1204605F0D6FB20461F49A6
S31508004F8005F0D8FA20461D4905F0B6FA20462979D3
S31508004F9005F002FC2B794BB96A791949194B204659
S31508004FA09B5C51F82220019905F03AFB204605F052
S31508004FB045FAB4F1B64F13D00F4B9C4212D003F505
S31508004FC080439C4210D003F580439C4214BF4FF0A7
S31508004FD0FF3403240C4B43F82450304602B070BD0E
S31508004FE00024F7E70124F5E70224F3E72226F4E78D
S31508004FF00F26F2E70126F0E700000B50FFFF1F001F
S31508005000B8840408B5840408EC9901202DE9F8430E
S315080050100C460546002800F09080002900F08D8097
S315080050200B681B68B3F1B64F1ED0474A93421DD092
S3150800503002F5804293421BD002F5804293427ED10C
S3150800504003262379012B7CD86379022B79D841F082
S31508005050D4FF3E4B074653F826305BB141F0C8FFF4
S3150800506012242046BDE8F8830026EAE70126E8E789
S315080050700226E6E7A04658F8063B986841F0EDFF99
S31508005080334841F0EAFF01220A21404605F01EF89E
S3150800509001220A2104F1080005F018F8237983B9DA
S315080050A04FF00A09404604F029FF642008F0E6FD9F
S315080050B0404640F057F8642008F0E0FDB9F10109D0
S315080050C0F0D10323234A02EB0611C1F82835E0790B
S315080050D0A379533643EA0043C1F82C35617A237A1B
S315080050E0360143EA0143935123682B6023792B71D8
S315080050F063796B71E3882B8123896B8100F0EAFC65
S31508005100002105F10C0000F077FC014620B1384675
S3150800511041F06EFF1924A4E705F1100000F06CFCBD
S31508005120044618B1E86800F0AFFCF0E72846FFF738
S3150800513009FF384641F05CFF93E7222491E70F24E4
S315080051408FE721248DE700BF00000B50EC99012062
S31508005150C491040800C00350F8B5036804461D68E6
S31508005160284605F005FA4706064633D5402128465F
S3150800517005F0E0F994F87C30042B13D0082B25D0E1
S31508005180032B0CD1E3887E2B0AD8002384F87D30C4
S3150800519094F87E30012B02D00B2384F87C30F8BDBE
S315080051A00423FAE794F87E30012B03D00B23A4F8E6
S315080051B07C30F4E7284605F011FB94F87F10284662
S315080051C041F0010105F0F2F90823E6E7002384F827
S315080051D07D30E4E7300713D52846082105F0AAF9FB
S315080051E00821284605F088F9284605F0F7FA94F8C4
S315080051F07F102846BDE8F84041F0010105F0D6B910
S3150800520016F080071BD08021284605F093F994F8FC
S315080052107C30082B03D006D8033B012B05D80A237C
S3150800522084F87D3001E00B2B07D00E2384F87C3000
S315080052302846BDE8F84005F0F3BA0323F0E7F10580
S3150800524011D52846144905F075F92846124905F07E
S3150800525053F920462FF0A1FAAF6094F87D30002B61
S315080052609DD10123B3E716F4C06F98D028460A49A2
S3150800527005F060F92846084905F03EF920462FF062
S315080052808CFA2023B205EB6001D504239FE773054A
S3150800529085D505239BE700BFFFFF1F00F8B5036808
S315080052A005461C68204605F063F910F00407064613
S315080052B030D02046FFF710FD20464A4905F03AF956
S315080052C02046494905F0FAF895F87C30052B02D0B6
S315080052D0092B17D0F8BDEB887E2B0BD8002385F851
S315080052E07D3095F87E30012BF4D1042304F58054E3
S315080052F0A360EFE72021204605F0E0F8062385F8AD
S315080053007C30E7E70421204605F0F6F8002385F807
S315080053107D30DFE7B0062ED52021204605F00AF9B4
S315080053202021204605F0E8F895F87C30062B1AD19E
S31508005330EB8895F880205B00DBB2934220460ED1BD
S31508005340FFF7CAFC95F87E30012B06D1042304F535
S315080053508054A36085F87D70BCE70923CFE7FFF783
S315080053609BFC0A23D3E7204630F033F92046BDE8F4
S31508005370F840FFF791BC16F0800705D02046BDE837
S31508005380F840802105F0B8B8F10311D52046174931
S3150800539005F0B2F82046154905F0CCF828462FF056
S315080053A0FCF9A76095F87D30002B93D10123AEE771
S315080053B016F4C06F8ED020460C4905F09DF820469D
S315080053C00A4905F0B7F828462FF0E7F92023B20571
S315080053D0E36001D504239AE773057FF57BAF0523C0
S315080053E095E700BF2400010080000100FFFF1F00B1
S315080053F010B5154B53F820402379204673B9FFF7AB
S31508005400ABFE94F87D1001290BD1D4F88430CBB1CA
S315080054102046D4F88C10BDE810401847FFF73EFF29
S31508005420EFE779B194F87C300E2B0BD10F2384F873
S315080054307C30D4F888302BB12046D4F88C20BDE8CF
S315080054401040184710BD00BFEC9901202DE9F74F11
S315080054500D46904699460446002800F0D480002A56
S3150800546000F0D1800C9B002B00F0CD800679002E31
S3150800547040F0CC80B9F1000F00F0CB800D9B002BDB
S3150800548000F0C7807F2900F2C48041F0B6FDE580B0
S315080054900090C4E91D66204684F87E60FFF7C2FBCB
S315080054A02368E7881D6802237F0084F87C30FBB2F6
S315080054B001932FF06BF983460E9BA3B12FF066F983
S315080054C00E9BA0EB0B0083420DD82023EB600B2329
S315080054D04FF0070A84F87D30009841F089FD504660
S315080054E003B0BDE8F08F284605F042F810F4C06A0C
S315080054F0074616D02846484905F01CF82023EB60D5
